{
  "_format": "hh-sol-artifact-1",
  "contractName": "Secret",
  "sourceName": "contracts/Secret.sol",
  "abi": [
    {
      "inputs": [
        {
          "internalType": "string",
          "name": "_secret",
          "type": "string"
        }
      ],
      "stateMutability": "nonpayable",
      "type": "constructor"
    },
    {
      "inputs": [
        {
          "internalType": "string",
          "name": "_secret",
          "type": "string"
        }
      ],
      "name": "changeSecret",
      "outputs": [],
      "stateMutability": "nonpayable",
      "type": "function"
    },
    {
      "inputs": [],
      "name": "owner",
      "outputs": [
        {
          "internalType": "address",
          "name": "",
          "type": "address"
        }
      ],
      "stateMutability": "view",
      "type": "function"
    },
    {
      "inputs": [],
      "name": "secret",
      "outputs": [
        {
          "internalType": "string",
          "name": "",
          "type": "string"
        }
      ],
      "stateMutability": "view",
      "type": "function"
    }
  ],
  "bytecode": "0x60806040523480156200001157600080fd5b5060405162000dfc38038062000dfc833981810160405281019062000037919062000224565b33600160006101000a81548173ffffffffffffffffffffffffffffffffffffffff021916908373ffffffffffffffffffffffffffffffffffffffff1602179055508060009081620000899190620004c0565b5050620005a7565b6000604051905090565b600080fd5b600080fd5b600080fd5b600080fd5b6000601f19601f8301169050919050565b7f4e487b7100000000000000000000000000000000000000000000000000000000600052604160045260246000fd5b620000fa82620000af565b810181811067ffffffffffffffff821117156200011c576200011b620000c0565b5b80604052505050565b60006200013162000091565b90506200013f8282620000ef565b919050565b600067ffffffffffffffff821115620001625762000161620000c0565b5b6200016d82620000af565b9050602081019050919050565b60005b838110156200019a5780820151818401526020810190506200017d565b60008484015250505050565b6000620001bd620001b78462000144565b62000125565b905082815260208101848484011115620001dc57620001db620000aa565b5b620001e98482856200017a565b509392505050565b600082601f830112620002095762000208620000a5565b5b81516200021b848260208601620001a6565b91505092915050565b6000602082840312156200023d576200023c6200009b565b5b600082015167ffffffffffffffff8111156200025e576200025d620000a0565b5b6200026c84828501620001f1565b91505092915050565b600081519050919050565b7f4e487b7100000000000000000000000000000000000000000000000000000000600052602260045260246000fd5b60006002820490506001821680620002c857607f821691505b602082108103620002de57620002dd62000280565b5b50919050565b60008190508160005260206000209050919050565b60006020601f8301049050919050565b600082821b905092915050565b600060088302620003487fffffffffffffffffffffffffffffffffffffffffffffffffffffffffffffffff8262000309565b62000354868362000309565b95508019841693508086168417925050509392505050565b6000819050919050565b6000819050919050565b6000620003a16200039b62000395846200036c565b62000376565b6200036c565b9050919050565b6000819050919050565b620003bd8362000380565b620003d5620003cc82620003a8565b84845462000316565b825550505050565b600090565b620003ec620003dd565b620003f9818484620003b2565b505050565b5b81811015620004215762000415600082620003e2565b600181019050620003ff565b5050565b601f82111562000470576200043a81620002e4565b6200044584620002f9565b8101602085101562000455578190505b6200046d6200046485620002f9565b830182620003fe565b50505b505050565b600082821c905092915050565b6000620004956000198460080262000475565b1980831691505092915050565b6000620004b0838362000482565b9150826002028217905092915050565b620004cb8262000275565b67ffffffffffffffff811115620004e757620004e6620000c0565b5b620004f38254620002af565b6200050082828562000425565b600060209050601f83116001811462000538576000841562000523578287015190505b6200052f8582620004a2565b8655506200059f565b601f1984166200054886620002e4565b60005b8281101562000572578489015182556001820191506020850194506020810190506200054b565b868310156200059257848901516200058e601f89168262000482565b8355505b6001600288020188555050505b505050505050565b61084580620005b76000396000f3fe608060405234801561001057600080fd5b50600436106100415760003560e01c806351d8ef43146100465780638da5cb5b14610062578063d1efd30d14610080575b600080fd5b610060600480360381019061005b919061034f565b61009e565b005b61006a610141565b60405161007791906103d9565b60405180910390f35b610088610167565b6040516100959190610473565b60405180910390f35b600160009054906101000a900473ffffffffffffffffffffffffffffffffffffffff1673ffffffffffffffffffffffffffffffffffffffff163373ffffffffffffffffffffffffffffffffffffffff161461012e576040517f08c379a000000000000000000000000000000000000000000000000000000000815260040161012590610507565b60405180910390fd5b806000908161013d919061073d565b5050565b600160009054906101000a900473ffffffffffffffffffffffffffffffffffffffff1681565b6000805461017490610556565b80601f01602080910402602001604051908101604052809291908181526020018280546101a090610556565b80156101ed5780601f106101c2576101008083540402835291602001916101ed565b820191906000526020600020905b8154815290600101906020018083116101d057829003601f168201915b505050505081565b6000604051905090565b600080fd5b600080fd5b600080fd5b600080fd5b6000601f19601f8301169050919050565b7f4e487b7100000000000000000000000000000000000000000000000000000000600052604160045260246000fd5b61025c82610213565b810181811067ffffffffffffffff8211171561027b5761027a610224565b5b80604052505050565b600061028e6101f5565b905061029a8282610253565b919050565b600067ffffffffffffffff8211156102ba576102b9610224565b5b6102c382610213565b9050602081019050919050565b82818337600083830152505050565b60006102f26102ed8461029f565b610284565b90508281526020810184848401111561030e5761030d61020e565b5b6103198482856102d0565b509392505050565b600082601f83011261033657610335610209565b5b81356103468482602086016102df565b91505092915050565b600060208284031215610365576103646101ff565b5b600082013567ffffffffffffffff81111561038357610382610204565b5b61038f84828501610321565b91505092915050565b600073ffffffffffffffffffffffffffffffffffffffff82169050919050565b60006103c382610398565b9050919050565b6103d3816103b8565b82525050565b60006020820190506103ee60008301846103ca565b92915050565b600081519050919050565b600082825260208201905092915050565b60005b8381101561042e578082015181840152602081019050610413565b60008484015250505050565b6000610445826103f4565b61044f81856103ff565b935061045f818560208601610410565b61046881610213565b840191505092915050565b6000602082019050818103600083015261048d818461043a565b905092915050565b7f4f6e6c79206f776e65722063616e206368616e676520746865206d657373616760008201527f652e000000000000000000000000000000000000000000000000000000000000602082015250565b60006104f16022836103ff565b91506104fc82610495565b604082019050919050565b60006020820190508181036000830152610520816104e4565b9050919050565b7f4e487b7100000000000000000000000000000000000000000000000000000000600052602260045260246000fd5b6000600282049050600182168061056e57607f821691505b60208210810361058157610580610527565b5b50919050565b60008190508160005260206000209050919050565b60006020601f8301049050919050565b600082821b905092915050565b6000600883026105e97fffffffffffffffffffffffffffffffffffffffffffffffffffffffffffffffff826105ac565b6105f386836105ac565b95508019841693508086168417925050509392505050565b6000819050919050565b6000819050919050565b600061063a6106356106308461060b565b610615565b61060b565b9050919050565b6000819050919050565b6106548361061f565b61066861066082610641565b8484546105b9565b825550505050565b600090565b61067d610670565b61068881848461064b565b505050565b5b818110156106ac576106a1600082610675565b60018101905061068e565b5050565b601f8211156106f1576106c281610587565b6106cb8461059c565b810160208510156106da578190505b6106ee6106e68561059c565b83018261068d565b50505b505050565b600082821c905092915050565b6000610714600019846008026106f6565b1980831691505092915050565b600061072d8383610703565b9150826002028217905092915050565b610746826103f4565b67ffffffffffffffff81111561075f5761075e610224565b5b6107698254610556565b6107748282856106b0565b600060209050601f8311600181146107a75760008415610795578287015190505b61079f8582610721565b865550610807565b601f1984166107b586610587565b60005b828110156107dd578489015182556001820191506020850194506020810190506107b8565b868310156107fa57848901516107f6601f891682610703565b8355505b6001600288020188555050505b50505050505056fea26469706673582212205957c912d1fdd388d6383d4fc9db1cb34334cf9bec7041473537363010c0436364736f6c63430008110033",
  "linkReferences": {},
  "deployedLinkReferences": {}
}